:020000040800F2
:1000000000120020554C0008C94A0008CB4A0008DD
:10001000CD4A0008CF4A0008D14A0008000000007D
:10002000000000000000000000000000D34A0008AB
:10003000D54A000800000000D74A0008D94A000845
:100040006D4C0008714C0008754C0008794C000894
:100050007D4C0008814C0008854C0008894C000844
:100060008D4C0008914C0008954C0008DD4A0008B2
:10007000E34A0008E94A0008994C00089D4C000832
:10008000A14C0008A54C0008A94C0008AD4C000884
:10009000B14C0008B54C0008B94C0008BD4C000834
:1000A000C14C0008C54C0008C94C0008CD4C0008E4
:1000B000D14C0008D54C0008D94C0008DD4C000894
:1000C000E14C0008E54C0008E94C0008ED4C000844
:1000D000F14C0008EF4A0008F54C0008F94C000804
:1000E000FD4C0008014D0008054D0008094D0008B1
:1000F0000D4D0008114D0008154D0008194D000860
:100100001D4D0008214D0008254D0008294D00080F
:100110002D4D0008314D0008354D0008394D0008BF
:100120003D4D0008414D0008454D0008494D00086F
:100130004D4D0008514D0008554D0008594D00081F
:100140005D4D0008614D0008654D0008694D0008CF
:100150006D4D0008714D0008754D0008794D00087F
:100160007D4D0008814D0008854D0008894D00082F
:100170008D4D0008914D0008954D0008994D0008DF
:100180009D4D0008A14D0008A54D0008A94D00088F
:10019000AD4D000800000000B14D0008B54D00084D
:1001A000B94D0008BD4D0008C14D0008C54D0008FF
:1001B000C94D0008CD4D0008D14D0008F54A000892
:1001C000D54D0008D94D0008DD4D0008E14D00086F
:1001D000E54D0008E94D000838B5040001D10120C3
:1001E00032BD04F18405686808B900F017F800F022
:1001F0001AF808B100F031F800F02CF8012804D00A
:1002000000F004F821F02A0116E032BD20684168B0
:1002100021F4904141602068816870470021297075
:10022000204600F026BE2420686020680168490846
:1002300049000160A06A7047816000F004F8BDE8E1
:10024000324000F094BB2068016841F00101016078
:1002500020467047204600F0D5B9204600F024BB68
:10026000284600F0D8BB38B50346D3F88C002028C8
:100270000AD109B1100001D1012032BD00F006F809
:10028000BDE8384000F00FBC022032BD0020D86627
:10029000DFF858431868A0420CD04068040209D522
:1002A000186850E8004F054644F0806445E8004077
:1002B0000028F5D118467047206800F1080151E880
:1002C000001F00F10803704743E800100028704742
:1002D0002DE9F041054640F60F0C2A68D369104617
:1002E00013EA0C0F0768966805F15C0407F020001C
:1002F00003F020010DD1002914D010B9F00040F115
:100300008C80A169002900F042812846BDE8F041B7
:100310000847DFF8B0C816EA0C0F04BFDFF8A8E8FA
:1003200017EA0E0F79D05FEAC37E48BF5FEAC7586D
:1003300007D54FF0010EC2F820E0626B42F00102D7
:1003400062639A070AD5F20708D5D5F80080022221
:10035000C8F82020626B42F0040262635A070AD593
:10036000F20708D5D5F800800422C8F82020626B77
:1003700042F0020262631A070DD5002808BF16EA90
:100380000C0F08D0D5F800C00822CCF82020626BF2
:1003900042F0080262631A0509D57B0107D52F6870
:1003A0004FF400623A62626B42F020026263626B59
:1003B000002A31D031B108B9F00003D5A16909B1E3
:1003C00028468847606B29688A68510602D410F075
:1003D000280F1CD000F0E7F828688168480611D57E
:1003E00000F0E4F8FCD1606A60B1DFF8E0178163E7
:1003F000606A00F0AFFE00280ED0606A816BBDE835
:10040000F04108472846BDE8F04101F0EAB9284626
:1004100001F0E7F900206063B9E02069012878D194
:10042000D80676D5F90674D5102010622A6821887E
:100430009068420637D5626A1368586880B200280F
:1004400028D0884226DA6080106801688A061AD4AB
:1004500000F0BAF821F4807100F0A1F8F8D100F0B2
:10046000CDFAFCD100F0B5F8FCD1202020630021AA
:10047000216100F0A9F821F0100100F090F8F8D106
:10048000606A00F033FE0220606121886088091AEA
:1004900089B206E088427AD11A68900677D502229E
:1004A0006261284631E062886088891A00281CBF92
:1004B00088B200286BD02A46106850E8003F0546F5
:1004C00023F4907300F065F8F6D1106800F108038A
:1004D00000F1080653E8003FDFF8B003034046E8A8
:1004E00000300028F1D12020206300232361A36184
:1004F000136853E8003F156823F0100300F049F833
:10050000F6D10220606189B21046BDE8F04101F0E9
:100510006BB9D80209D5710207D54FF4801010626B
:100520002846BDE8F04101F060B9180609D5390642
:1005300001D4300205D5E16949B32846BDE8F04150
:100540000847580611D579060FD500F03DF821F07F
:10055000400100F024F8F8D12020E0620021E161A0
:100560002846BDE8F04101F03AB9180206D57900F5
:1005700004D52846BDE8F04101F038B9D80148BF9C
:10058000002F04D52846BDE8F04101F030B9BDE8A0
:10059000F08145E800300028704721F4F07142E80E
:1005A000001000287047284600F0E2BA296801F1DF
:1005B000080252E8001F286800F1080321F04001FA
:1005C00043E8001000287047286850E8001F0246E2
:1005D0007047286800F1080151E8001F00F1080386
:1005E00021F0400143E800100028704700800040DF
:1005F00044E800300028704700F188010868496825
:1006000008437047F8B50446DFF8EC062268136823
:10061000A168034020690B4361690343E0690B4310
:100620000343136000255168E06821F44051014301
:100630005160A369DFF8C4168A421CBF206A0343D5
:100640009668DFF8BC06DFF8BCE6DFF8BC7606404B
:10065000334393608EA6D36A606A1B0940EA031392
:10066000D3627245DFF8B0064FF400433ED13F68D5
:1006700007F00307032F47D8DFE807F00289789DCA
:100680004FF0010CE169B1F5004F4FF6F07740F003
:10069000C580BCF1000F0FD0BCF1010F00F0B68097
:1006A000BCF1020F0CD0BCF1040F00F0B280BCF121
:1006B000080F00F0B180DEE001F07AFB002814D0D2
:1006C000626A616836F81230B0FBF3F04A0802EB58
:1006D0004002B2FBF1F0A0F11001B942EBD20740A9
:1006E000C0F3420007432068C760C5E0DFF82CC6AE
:1006F00062452CD13F6817F00C076ED0042F46D00E
:10070000082F33D00C2F56D04FF0100C8A42B9D19D
:10071000BCF1000F09D0BCF1020F0AD0BCF1040FEC
:100720005DD0BCF1080F5DD0A5E001F041FB0028D1
:10073000DBD0616A36F81120B0FBF2F6626802EB9A
:1007400042018E4202D31303B3424DD293E0DFF84D
:10075000D0C562450DD13F6817F030073DD0102F4E
:1007600015D0202F02D0302F25D0CDE74FF0020C2E
:10077000CCE7DFF8B0C562450CD13F6817F0C00781
:100780002BD0402F03D0802FF0D0C02FECE74FF0BC
:10079000040CBBE7DFF890C562450FD13F6817F442
:1007A00040771AD0B7F5807FF1D0B7F5007FDDD064
:1007B000B7F5407FA8D14FF0080CA7E78A42A3D134
:1007C0003F6817F4406708D0B7F5806FDFD0B7F502
:1007D000006FCBD0B7F5406FC6E7AC4696E701F0A7
:1007E000B8FAA4E71846A4E75008002110EB062049
:1007F00051EB1661002301F00BFBA0F54076DFF80A
:100800002C75BE4237D22168C86035E001F0D8FAB5
:1008100054E701F09EFA51E7184651E7BCF1000F8A
:100820000CD0BCF1010F1ED0BCF1020F09D0BCF1FD
:10083000040F1BD0BCF1080F1BD01CE001F0B8FA6C
:10084000D0B1626A36F812306168B0FBF3F000EBA9
:100850005100B0FBF1F0A0F11001B9420BD22268B7
:1008600080B2D06008E001F0ABFAE9E701F071FA7C
:10087000E6E71846E5E7012504F1680001210023B9
:1008800041800180C36003612846F2BDFEFFFFEF97
:10089000010002000400060008000A000C0010001D
:1008A000200040008000000190F828100A0706D5BB
:1008B00002685368816B23F400430B43536090F844
:1008C0002810CA0706D502685368C16A23F40033AA
:1008D0000B43536090F828108A0706D502685368C6
:1008E000016B23F480330B43536090F828104A07C0
:1008F00006D502685368416B23F480230B43536091
:1009000090F82810CA0606D502689368C16B23F4D4
:1009100080530B43936090F828108A0606D502682E
:100920009368016C23F400530B43936090F82810F4
:100930004A0610D502685368416C23F480130B43B8
:100940005360436CB3F5801F05D15368816C23F469
:10095000C0030B43536090F828100A0606D50168BF
:100960004A68C06C22F4002202434A607047F8B51E
:10097000054605F184040020E0606FF07E4701F039
:10098000CBFA0646286801680A0711D50097334656
:1009900000224FF40011FFF763FC48B1FFF714FE8B
:1009A00021F08001FFF7FBFDF8D12020606017E007
:1009B000286801684A0717D50097334600224FF48C
:1009C0008001FFF74DFC78B1FFF7FEFD21F4907137
:1009D000FFF7E5FDF8D100F011F8FCD12020A06070
:1009E000002121700320F2BD202060602021A16041
:1009F0000020E866002129672070F2BD286800F118
:100A0000080151E8001F490800F10803490043E8C4
:100A10000010002870472DE9F041069C05460E465F
:100A200090461F462868C1693140B1420CBF012081
:100A30000020404535D114F1010FF3D001F06CFADC
:100A4000C01B844200D314B90320BDE8F08128689C
:100A500001684A07E6D5802E18BF402EE2D0C16952
:100A6000080704D42968C8690105DBD50CE02A68A9
:100A700008201062FFF797FD05F184000821C1608E
:100A8000002202700120E0E729684FF4006008624C
:100A9000FFF789FD05F184002021C160002202706A
:100AA000D2E70020D1E770B5044604F15C05134697
:100AB000A1652B800020686322212963686AD8B170
:100AC0000FF22911C1620FF2B910696A0863696AED
:100AD0000FF2C91048630020696A88632668A26D16
:100AE000686A06F1240100F0BDFA28B1102068639D
:100AF00020212963012070BD206940B1216851E89F
:100B0000001F226841F48071FFF749FDF6D1FFF71D
:100B1000D3FB41F00101FFF7D7FBF8D1FFF7CCFB86
:100B200041F04001FFF7D0FBF8D170BD10B500F0E7
:100B300008F8FCD100F00FF8FCD12021C0F8881093
:100B400010BD016851E8002F0B4622F0C00243E8B7
:100B5000002100297047016801F1080252E8002FC6
:100B600001F1080422F4000244E800210029704742
:100B700010B500F00EF8FCD100F015F8FCD1C16EF4
:100B800000F026F82021C0F88C100022C2664267CF
:100B900010BD016851E8002F0B4622F4907243E823
:100BA000002100297047016801F1080201F10804E1
:100BB00052E8002FDFF878110A4044E800210029AC
:100BC000704700000100001020010004EB0C000839
:100BD000012909D1026852E8002F036822F01002AF
:100BE00043E800210029F5D17047000038B5826A3A
:100BF000006803689C0602F15C012CD40020488048
:100C0000136853E8003F146823F48073FFF7F0FC87
:100C1000F6D1106800F1080353E8003F5B0800F1CB
:100C200008055B00FFF7B5FCF3D1106800F020F871
:100C300023F04003FFF7ADFCF7D1202008630B69D8
:100C4000012B08D1106850E8003F044623F0100340
:100C5000FFF7CEFCF6D1002048610B69012B02D1D1
:100C60000988104653E0BDE83240104600F0B8BD98
:100C700000F1080353E8003F00F108057047000049
:100C8000806A00F15C0101224A610B69012B18BFE7
:100C900001F048B90988490800F0A6BDF8B5846A92
:100CA00004F1880504F1560728686E6821688A688F
:100CB000110606D5212804D1002038802046FFF7F0
:100CC00035FF21688868410606D5222E04D1002010
:100CD00038812046FFF74CFFA86840F01000A8605C
:100CE0002046BDE8F24000F07CBD806A0021A0F8FB
:100CF0005E1000F076BD0000F369FFCF0080004079
:100D0000FFF4FF1100380140881002401188BDE84F
:100D1000344000F069BD00000024F40000440040AD
:100D200000480040004C00400050004000FD0F0013
:100D3000FEFFFFEF8B4882B0816841F001018160C6
:100D4000816801F0010100910099026842F080522F
:100D50000260006800F080500090009802B001F03E
:100D600028B930B59BB0044614220021684601F032
:100D700031F900F0F1F820687B49884270D14FF4D6
:100D8000802200210692199106A801F02DF908B1E0
:100D900000F01DFD7548764D416841F48071416059
:100DA000416801F4807105910599026842F00102E1
:100DB0000260036803F0010305930599026842F09D
:100DC00004020260036803F00403059305990268B6
:100DD00042F0080202600821006800F00800059057
:100DE00002220598009101920021029103220A211A
:100DF0000491039269464FF0904001F03BFA0221C2
:100E00000191002202921E2000F02CF8594801F0B6
:100E100031FA0221019100220292082000F022F80A
:100E2000554801F027FA28216960002253482860BC
:100E30008021AA60EA6029616A61AA61EA612A6286
:100E4000284600F0A5F808B100F0C1FCE563AC62EB
:100E5000002200215F2001F0A7FB5F2001F0C2FB10
:100E60001BB030BD0321009003910A220492694611
:100E7000704778B59BB004461422002101A801F008
:100E8000A9F800F069F820683D4988425BD1012249
:100E900000210692079106A801F0A6F808B100F01B
:100EA00096FC3248374E4169374D41F480414161EB
:100EB000416901F4804100910099026842F0010209
:100EC00002604FF4C061006800F00100009002224F
:100ED0000098019102920021039104914FF09040FB
:100EE0000721059101A901F0C5F9182070600021C2
:100EF000B160002000F029F831613560304600F023
:100F000047F808B100F063FCC4F88060B46205F1F2
:100F100014001E4E3060192171600020102200F074
:100F200014F8B2603161304600F032F808B100F0D8
:100F30004EFCE667B46200220021252001F034FB5C
:100F4000252001F04FFB1CB070BDF0608021706166
:100F5000B061F061306270475422002106A801F0B0
:100F600039B8000058100240001000A04C10024098
:100F7000440C002000080048000C00480800024013
:100F800000380140A40C00201C000240040D002089
:100F900038B5040001D1012032BD2168DFF880237B
:100FA000914204F1240500F044F8022169702068A0
:100FB0000268A068E16823686FF30E12024320699B
:100FC0000A4361690243A0690A43E1690243206A56
:100FD0000A4302431A60204600F078F9A068B0F591
:100FE000804F04BF00216160696A207900F014F825
:100FF00038B1052805D2204600F083F900F012F838
:1010000003E0002028636863A8630021A961012030
:1010100068702970002032BD0860A96AE86A4860DB
:1010200060687047296B00200860696BA86B486096
:1010300070470BD2DFF8EC0241181423B1FBF3F137
:101040008900DFF8E4222962EA617047DFF8DC02F8
:1010500041181422B1FBF2F18900DFF8D4022962B1
:10106000E8617047F8B5044604F12406002530789D
:10107000012801D10220F2BD012030707778012FC4
:1010800030D1022070700027B7612068D0F800C00E
:101090004FEA5C074FEA470CC0F800C0204600F05A
:1010A000F9F82168F06820B10A6842F00E020A607F
:1010B00008E0086820F0040008602068016841F03A
:1010C0000A010160706A0168CA0301D500F07BF86B
:1010D000306B08B100F077F82068016841F0010139
:1010E000016001E0357002252846F2BD10B500F11F
:1010F000240200215378022B03D0042090610121A7
:1011000022E003681C6824F00E041C60536A1C680B
:1011100024F480741C60006803685B085B00036053
:10112000012092F82030D46903F01F0398406060DA
:10113000936AD06A5860106B30B1036823F48073EF
:101140000360506B936B4360012353700020107059
:10115000084610BD38B500F1240200245178022958
:1011600006D004209061012151701470012428E000
:1011700001680B6823F00E030B6001680D686D08B1
:101180006D000D60516A0B6823F480730B600121C0
:1011900092F82030D56903F01F0399406960936A83
:1011A000D16A5960116B31B10B6823F480730B6005
:1011B000516B936B4B60012353701470516901B1F3
:1011C0008847204632BD016841F480710160704754
:1011D000F8B500F124010423CA691468026815688F
:1011E00091F8206006F01F0603FA06F73C4210D083
:1011F0006F070ED51468A50603D4146824F0040400
:10120000146000F03EF8C968002939D0BDE8F44008
:101210000847022303FA06F73C4213D0AF0711D563
:101220001468A50605D4146824F00A041460012289
:101230004A7000F026F800220A70896801B3BDE800
:10124000F4400847082303FA06F6344218D02B0767
:1012500016D5146824F00E041460012291F8203091
:10126000CC6903F01F039A406260012301228A6166
:101270004B7000220A70096911B1BDE8F4400847BB
:10128000F1BD91F82020CC6902F01F029340636009
:101290007047000070B5C56C046D6C60446D14B18E
:1012A000856DC46D6C60012490F84450066C05F0A7
:1012B0001F05AC407460046863608068102802D128
:1012C000A260E16070BDA160E26070BD10B5016810
:1012D000134B184A994228BF2032446C01F0FF0199
:1012E000A4080839142302EB8402B1FBF3F18264F1
:1012F000012301F01F01104AC26403FA01F10165E4
:1013000010BD01790D4A0E4B836502EB81024265E7
:10131000491E012201F01F018A40C265704700008A
:1013200008040240F8FFFDBF00000240F8FBFDBFCB
:10133000000402400008024080080240FC0802400D
:10134000400902402DE9F84F9EB000208DF80000C2
:1013500001F074F900F08AF9002001F07FF9022011
:1013600001F07CF9DFF89C03DFF89CA3416841F0B1
:10137000010141600AF56376416801F001010191C4
:1013800000240199426842F004024260416801F081
:10139000040101910199426842F0080242604168EB
:1013A00001F0080101910199026842F00402026013
:1013B000036803F0040301930199026842F00102FB
:1013C00002600022006800F00100019000210198F5
:1013D0000B2001F0E9F80B2001F004F900220021B4
:1013E0000C2001F0E1F80C2001F0FCF800220021B3
:1013F0000D2001F0D9F80D2001F0F4F8C348306059
:1014000001214FF440707061716080200422192125
:10141000F061B2603161F460B4613462304601F071
:10142000EBF908B100F0D3F90AF53E77B848386017
:101430004FF4E1310C2078617960BC60FC603C6164
:10144000BC61FC613C627C62BC623846FEF7C4FE53
:1014500008B100F0BCF90021384601F057FF08B18F
:1014600000F0B5F90021384601F05BFF08B100F04B
:10147000AEF9384601F02CFF08B100F0A8F90020C1
:1014800001F040F94FF480784FF40051CDF82080FE
:1014900005910A940D940E940F9441F288399D4D54
:1014A00019E000202870304600F036F9D82102916A
:1014B0004FF4806200210B9107910992039402A9D5
:1014C000304601F021FB08B100F081F99DF80000E1
:1014D000401C8DF800000AF5FC7101919DF8002078
:1014E000052A00F2BB80DFE802F003040F434999AC
:1014F000D7E728780028EED0002129700020E87076
:10150000304600F03FF9E1E7E8780028E3D0002119
:10151000E9700020A870304600F0FEF838210291F2
:101520004FF440624FF040710B910992CDF830803A
:1015300041460AF1F80001F047FF42460AF1F8017E
:101540003846FEF790FE08B100F041F93846FFF743
:1015500053F82028FAD14A4602A900F084F808B1CD
:1015600000F035F90AF1F801304601F0B8FBAAE7BE
:10157000A8780028AFD00021A970BFE7E87800283C
:10158000A9D00021E970002285216A70109117927C
:101590000021189115911B911C911D914FF08072A3
:1015A000012119921A91CDF8588000F05AF808B12B
:1015B00000F00DF94A460DF10101304601F035FB0E
:1015C00008B100F004F9304600F0A6F89DF80110CB
:1015D00001F00F01812041F0400110908DF80110C1
:1015E00000F03FF808B100F0F2F84A460DF10101B1
:1015F000304601F0C4FA08B100F0E9F8EB2104220A
:101600000291079202A94A4600F02DF808B100F0B5
:10161000DEF80199304601F0E6FB54E768780028CF
:101620001ED0002169708B4601981AF80B2010F823
:101630000B1091421CBF022001F064F80BF1010B6A
:10164000BBF5807FF0DB002001F0A4F804F5807486
:10165000B4F1007F28BF002400203AE700F0B7F87B
:1016600039E74A4610A9304601F013BA00B593B0E5
:101670003822002105A800F0ADFC142200216846A4
:1016800000F0A8FC002000F04FFC4FF4807208929C
:101690000221022205910C920D924021042209910F
:1016A0000E92552102220F9110921192129205A8CA
:1016B00000F09EF808B100F08AF80F200321009096
:1016C000019100220292039204920421684600F0E4
:1016D0006BFA08B100F07BF813B000BD0D4801783B
:1016E000491C017070470B484178491C4170704794
:1016F00008488178491C817070470648C178491CA8
:10170000C17070474810024000000020001000A087
:1017100000380140F40D002038B594B004464FF471
:101720008070062100220C9006910D920E920F926D
:101730000B9211921292139241F288352A4606A911
:10174000204601F0A6F908B100F041F8022100910D
:101750000191012200210491039210214FF4800293
:101760000291059205214FF0807206910F922B464F
:101770006A4606A9204601F0CBFB08B100F027F825
:1017800015B030BD0023052280B594B04FF48071B0
:101790000D9306924FF080730F9300220E920B92DE
:1017A00011921292139200920123049201930393D7
:1017B00010220C9102924FF4800305936A4606A909
:1017C00001F0F2FB08B100F002F815B000BD80B5E1
:1017D000642001F0FDFD022000F0DCFFF8E7704717
:1017E0007047022000F0ACBF7047704770477047E9
:1017F0002DE9F84304006DD02078DFF8DC65C107DF
:1018000017D500F0CBF90CD101F0030103290AD060
:101810006068B0F5803F2AD1306840F48030306095
:1018200037E00828F4D13068810302D560680028C9
:1018300050D02178880759D500F0B0F943D101F094
:101840000301022941D0E06800286AD0316841F4E0
:101850008071316000F060FB0546306841055DD461
:1018600000F05AFB401B0328F7D303205FE1B0F5DB
:10187000A02F306806D140F480203060316841F4F8
:10188000803105E020F480303060316821F480211F
:101890003160606858B100F03FFB05463068810355
:1018A000C7D400F039FB401B6528F7D3DDE700F013
:1018B00033FB054630688103BBD500F02DFB401B90
:1018C0006528F7D3D1E70428BDD13068410503D599
:1018D000E068002800F0588100F058F9DFF80405AE
:1018E000006801F089FD002840F04E812078DFF883
:1018F000F874010734D560690028786821D040F079
:101900000100786000F008FB05467868810727D45D
:1019100000F002FB401B0328F7D3A6E700F036F9DE
:10192000E4E7306820F48070306000F0F5FA054696
:1019300030684105DAD500F0EFFA401B0328F7D3F1
:1019400093E740084000786000F0E6FA05467868C2
:10195000810705D500F0E0FA401B0328F7D384E7A0
:101960002078410763D5B06D0025C10009D4B06D62
:1019700040F08050B0650125B06D00F080500090BF
:101980000098DFF86884D8F80000C10513D4D8F8AF
:10199000000040F48070C8F8000000F0BDFA8146F5
:1019A000D8F80000C10506D400F0B6FAA0EB090093
:1019B0000328F5D359E7A068012804D1386840F01E
:1019C0000100386010E00528386806D140F00400B6
:1019D0003860396841F0010105E040084000386096
:1019E000396821F004013960A06841F2893860B19A
:1019F00000F092FA81463868810713D400F08CFA1F
:101A0000A0EB09004045F6D32FE700F085FA8146A8
:101A10003868810706D500F07FFAA0EB0900404541
:101A2000F6D322E71DB1B06D20F08050B06520786C
:101A3000810621D5A0690028B8680ED040F00100C9
:101A4000B86000F069FA0546B868810714D400F060
:101A500063FA401B0328F7D307E740084000B8604B
:101A600000F05AFA0546B868810705D500F054FA27
:101A7000401B0328F7D3F8E6E069002856D0B16888
:101A800001F00C010C2954D00228306820F080703D
:101A900030603AD100F040FA05463068810105D542
:101AA00000F03AFA401B0328F7D3DEE6F068DFF8CF
:101AB0004013226A0840616A1043491E40EA01103F
:101AC000226BA16A520840EA0120616B521E49084C
:101AD00040EA4250491E40EA4160E16A40EAC16082
:101AE000F060306840F080703060F16841F08071E3
:101AF000F16000F011FA04463068810116D400F05C
:101B00000BFA001B0328F7D3AFE600F005FA0446F2
:101B10003068810105D500F0FFF9001B0328F7D3D9
:101B2000A3E6F068DFF8CC120840F0600020BDE8C2
:101B3000F283012828D0F068226A00F00301914264
:101B400001BF00F0F001626A521EB1EB021F1BD10F
:101B5000A26A00F4FE41B1EB022F02BF00F078410F
:101B6000E26AB1EBC26F0FD1226B520800F4C001E0
:101B7000521EB1EB425F07D1616B490800F0C060B3
:101B8000491EB0EB416FD1D00120D0E770682169C8
:101B900020F0FE4040EA016070607047B068F16874
:101BA00000F00C000C2870472DE9F84F0446002681
:101BB000002C6CD0DFF840723868894600F00F00C6
:101BC000484506D200F0BFF8386800F00F004845DD
:101BD0005DD12168DFF80052C80741F2893858D535
:101BE0006068DFF818B203284FF0080A27D1286888
:101BF00082014CD5EA68E868C0F30310401C02F08B
:101C00000302032A0CBFDFF8F821DFF8D421B2FB6E
:101C1000F0F2E868C0F306204243E868C0F3416090
:101C2000401C4000B2FBF0F0584516D3AA6812F0F1
:101C3000F00F0DD0890710D5A06870B908E0022810
:101C4000286822D1810322D500F083F8584504D3B7
:101C5000A8686AF30710A8608026A96860688908E8
:101C600040EA8101A96000F057F98246A8686168DE
:101C700000F00C00B0EB810F0BD000F04DF9A0EBA1
:101C80000A004045F2D303205BE04105DCD401208B
:101C900057E02068810714D5400703D5A96841F4AF
:101CA000E061A9602078010704D5A968072060F3E6
:101CB0000D21A960A968A06821F0F0010143A96085
:101CC00005E0802E03D1A86820F0F000A8603868F5
:101CD00000F00F0081450FD200F035F800F01CF93C
:101CE0000646386800F00F00484505D000F014F9AA
:101CF000801B4045F5D3C6E72078410705D5AA6883
:101D0000E06822F4E0620243AA602178080706D561
:101D1000A968206921F4605141EAC001A96000F07E
:101D200018F8AA683749C2F30312895C2B4A01F0FC
:101D30001F01C8401060BDE8F24F2A48006801F05A
:101D40005BBBBDE8F28F3968090949EA01113960C6
:101D500070472D49086800F00C00042801D1204884
:101D60007047086800F00C00082801D1244870472B
:101D7000086800F00C000C2818D14A684868C0F3C5
:101D80000310401C02F00302032A0CBF1C4A144A31
:101D9000B2FBF0F24868C0F3062042434868C0F343
:101DA0004160401C4000B2FBF0F0704700207047DB
:101DB0000A48154A006813681449C3F3022206E072
:101DC0000648114A006813681049C3F3C222895CAF
:101DD00001F01F01C840704700100240700400204D
:101DE0000024F400680400209010024000700040BD
:101DF0000C809F01FCFFEEFE0020024001B4C404F1
:101E000000366E01744B000808100240644C000854
:101E1000D3BBD9B1B2F5803F5BD2022A1ED98C4622
:101E2000B1FBF2F102FB11C31B0443EA1043B3FB05
:101E3000F2FC02FB1C3380B240EA0343B3FBF2F036
:101E400002FB103240EA0C4000237047022A05D9F9
:101E50008446B0FBF2F002FB10C270474AB105D1D4
:101E600000F0010249085FEA3000704700220023B9
:101E7000704701F0E3BA0B00020000210020704718
:101E8000F7D3002200237047904271EB030CF2D38A
:101E900070B5B1FA81F4B3FA83F52C1BA340C4F1F9
:101EA000200532FA05F63343A2405FF00046E640D3
:101EB00002E05B085FEA3202841A71EB030524BF7B
:101EC000204629467641F4D302000B003000002161
:101ED00070BD70B5B1FA81F4B2FA82F5C4F1200494
:101EE0006419B4F12006DAD3B2405FF00044F44044
:101EF000002502E052085FEA3303C61A71EB020EB6
:101F000024BF3046714664416D41F3D302000B009B
:101F10002000290070BD000001480068704700BF24
:101F2000640400207047000030B53222DFF898309A
:101F3000DFF89050DFF88810012448B900F01DF850
:101F400020F48070286016D100F01EF80CD412E046
:101F5000B0F5007F0AD100F010F840F480702860DE
:101F600009D100F011F806D5032030BD0A6802201F
:101F700060F34A220A60002030BD086800F4C060A7
:101F8000B0F5806F28687047086864F34A200860DD
:101F90001B68DFF838405A43B2FBF4F0401C00E005
:101FA000401E4A69530501D50028F9D14869410509
:101FB00070470748016841F48041016070470000A4
:101FC00000700040807000407004002040420F000C
:101FD0000870004010B5044610460A4601462046E7
:101FE00001F02EFA204610BD2DE9FC4705464FF0C2
:101FF00000082868DFF87062DFF87072010353D5BB
:10200000F06CC100C1460AD4F06C40F08050F0641E
:102010004FF00109F06C00F0805000900098DFF85C
:102020005042206840F480702060FFF775FF8246C0
:102030002068C10506D4FFF76FFFA0EB0A00032854
:10204000F6D321E0386810F440701CBF296D884237
:102050000BD03868396841F48031396020F4407021
:102060003A6822F480323A603860C0070FD5FFF733
:1020700053FF04463868810709D4FFF74DFF001B62
:1020800041F289318842F5D34FF0030805E0396801
:10209000286D21F4407101433960B9F1000F03D07C
:1020A000F06C20F08050F0642878C10705D5F26FFD
:1020B0006868920840EA8202F2672978880705D5A5
:1020C000F16FA86821F00C010143F16729784807F6
:1020D00005D5F16FE86821F030010143F1672978F7
:1020E000080705D5F16F286921F0C0010143F167A8
:1020F0002978C80605D5F16F686921F4407101435C
:10210000F1672978880605D5F16FA86921F4406147
:102110000143F1672978480605D5F16FE86921F494
:1021200040510143F1672978080605D5F16F286A07
:1021300021F440410143F1672968C80505D5F16FD5
:10214000686A21F440310143F1672968880305D5A5
:10215000F968A86A890840EA8101F9602968880558
:1021600005D5F16FE86A21F440210143F167296840
:1021700048050AD5F16F286B21F440110143F1673E
:10218000296BB1F5801F00F069F8296808050AD5A8
:10219000F16F686B21F440010143F167696BB1F5A0
:1021A000800F00F05BF82968C8040AD5F16FA86BAE
:1021B00021F040710143F167A96BB1F1807F00F01C
:1021C0004DF82968880408D5F16FE86B21F040616B
:1021D0000143F167E96B00F03FF82968480408D52E
:1021E000F16F286C21F040610143F167296C00F028
:1021F00033F8296808040AD5F16F686C21F0405162
:102200000143F167696CB1F1805F00F01FF8296844
:10221000C8030AD5F16FA86C21F040410143F16772
:10222000A96CB1F1804F00F011F8296848030AD574
:10223000F968E86C21F440110143F960E96CB1F5EB
:10224000001F00F00BF84046BDE8F68703D1306868
:1022500040F4803030607047B1F1006F03D13068D6
:1022600040F48010306070470C1002409010024023
:10227000007000402DE9F84F0027B64AB64B4FF0EA
:102280000F0805460E4638E0B44CA54214BF06249C
:1022900005248C40B24944EA0E0441F82C40C14365
:1022A000D2F808C0746801EA0C0CE40248BF40EAA6
:1022B0000C0CC2F808C0D2F80CC0746801EA0C0C0F
:1022C000A40248BF40EA0C0CC2F80CC0D2F804C00B
:1022D000746801EA0C0CA40348BF40EA0C0CC2F875
:1022E00004C0D2F800C001EA0C0C7168C90348BFF1
:1022F00040EA0C0CC2F800C07F1C316831FA07F0CC
:1023000000F094800124BC4014EA0100F4D04FEAAC
:10231000470C032101FA0CF16FEA010E716801F01C
:102320000309B9F1010F1CBF01F00301022912D109
:10233000A968D6F80C900EEA010109FA0CF949EAED
:102340000101A960696821EA04047168C1F3001100
:10235000B9400C436C60B900347904F00304032CD9
:1023600021D0EC68D6F808900EEA040409FA0CF9BA
:1023700049EA0404EC60347904F00304022C12D11D
:10238000FC0805EB840401F01C09D4F820A008FA2D
:1023900009FB2AEA0B0AD6F810B00BFA09F949EA48
:1023A0000A09C4F820902C680EEA040E347904F06F
:1023B000030404FA0CF444EA0E0CC5F800C0746877
:1023C00014F4403F98D0D3F800C0654C4CF0010C99
:1023D000C3F800C04FEA970CD3F800E00EF0010EEE
:1023E000CDF800E001F00C01DDF800E054F82C40DD
:1023F00008FA01FE24EA0E0EB5F1904F08BF002442
:1024000013D0584CA54208BF01240ED0564CA5420B
:1024100008BF022409D0554CA54208BF032404D0AC
:10242000534CA5427FF430AF042432E7BDE8F18F6E
:102430002DE9F04F8A464FF0000B4649484B0F22DA
:10244000044649E0454EB44214BF0626052606FA66
:102450000EF6B54218D1D1F800E0C04300EA0E0EE6
:10246000C1F800E04D6805404D60D1F80CE000EA8D
:102470000E0EC1F80CE08D682840886053F82800E3
:1024800020EA090943F8289003254FEA4B00D4F8C5
:10249000008005FA00F040EA08084FEADB05C4F8BE
:1024A000008004EB850E07F01C07DEF8208002FA9E
:1024B00007F728EA0707CEF82070C043E76807400F
:1024C000E760D4F804E02EEA0C0CC4F804C0A76856
:1024D0003840A0600BF1010B3AFA0BF02AD0012032
:1024E00000FA0BFC1CEA0A00F4D04FEA9B084FEA02
:1024F0008B0753F8285007F00C0E02FA0EF909EA80
:102500000505B4F1904F08BF0026A0D0154EB44287
:1025100008BF01269BD0144EB44208BF022696D0B5
:10252000124EB44208BF032691D0114EB44289D155
:1025300004268CE7BDE8F08F0AB1816170478162A3
:102540007047426901EA0203914341EA0341816114
:102550007047000000040140601002400014004871
:10256000080001400004004800080048000C004832
:10257000001000480901020002D42A488154704723
:10258000294B02F00F021A4402F8041C7047274B33
:1025900019684FF6FF020002114000F4E0600843A2
:1025A000234908431860704770B5204B1C68C4F37A
:1025B00002230124C3F10705052D2EBF0F2504FAC0
:1025C00005F56D1E1E1D072E34BF0023DB1E29409E
:1025D000994004FA03F3BDE870405B1E1A401143B2
:1025E000C8E70000010007D4012200F01F01114BD1
:1025F0008A40400943F82020704710B5401EB0F1D2
:10260000807F01D3012010BD0B4C60600F214FF083
:10261000FF30FFF7AFFF0021A160072020600020FE
:1026200010BD000000E400E018ED00E00CED00E05B
:102630000000FA0500E100E010E000E0032010B522
:10264000FFF7A5FF002000F0D7FE0024002814BFEC
:102650000124FEF76FFB204610BD0000F0B50024FA
:10266000030089B00546DFF870210FF278111DD004
:10267000022823D004282AD1106840F004001060FA
:10268000126802F0040200920098DFF8507107947B
:1026900001220592069251F82560049604A957F884
:1026A0002500FFF7E7FD00F027F822E0106840F072
:1026B00040001060126802F04002E4E7136843F043
:1026C00020031360106800F020000090DCE751F850
:1026D0002550019504220292039401A900F079F893
:1026E0004FF0FF3620B90122A9B200F011FF00B16E
:1026F0003446204609B0F0BD57F825000122B1B29A
:10270000FFF71ABF38B5002403000FF2D80118BF35
:10271000022804D100F037F8002289B204E004282E
:1027200005D1012200F02AF8FFF706FF06E031F894
:1027300023100022002000F0EBFE0446204632BDAC
:1027400038B5002403000FF29C0118BF022804D101
:1027500000F019F8012289B204E0042805D1002212
:1027600000F00CF8FFF7E8FE06E051F82310012214
:10277000002000F0CDFE0446204632BD4FF48071AB
:10278000DFF85C007047DFF8545051F8231055F81B
:102790002300704710B5002402000FF248011CBF4F
:1027A0000228042804D100F00BF8FFF7CAFE05E068
:1027B00051F82210002000F0C1FE0446204610BD52
:1027C000DFF8183051F8221053F8220089B2704710
:1027D0006946002000F068BE4C1002405004002002
:1027E000000800480002000040000000000800004F
:1027F0008000000000010000F8B50446FFF78CFBE4
:1028000006460CB90120F2BD04F14005687838B9DC
:10281000002129702046FEF7A4FA41F28830A86012
:10282000334620680168A26821F47061521E41EAB3
:102830000221016000F00BFC010022D12368124943
:102840001E6862680E40E16846EA0266E2690E436D
:10285000216A16430E431E6023680C495E6827698F
:1028600062690E4046EA0746A16916430E435E6060
:1028700021680A6842F001020A60002169600122B1
:102880006A7000212970F2BD2FFFFF00FEF8E0FF03
:1028900038B504462068816802464B07126838D56F
:1028A000550336D500F1200194F8410012280DD0CF
:1028B00094F84100222827D119E0606A02780A7052
:1028C000636A581C6062E26A521EE2622068826893
:1028D000530719D5E06A0028EFD10FE00878226B82
:1028E0001070206B431C2363A06B401EA063206804
:1028F0008268530708D5A06B0028EFD121680868CB
:102900000A4620F4802010602046BDE8324000F0E6
:10291000C8BE8B0761D595035FD50221C1602068D1
:10292000026822F4E022026094F8410012280DD1DE
:10293000206801684A0701D500F0A0F8012084F85A
:1029400041002046BDE83240FEF7D2BE94F8410077
:10295000222822D1206801684A0702D500F08EF8AB
:1029600013E000F1200108E00A78206B0270226B6E
:10297000531C2363A06B401EA0632068826812F47E
:10298000F85F1CBFA06B0028EED1012184F8411034
:102990002046BDE83240FEF7A6BE94F8410002286A
:1029A00007D1012184F841102046BDE83240FEF7EE
:1029B00095BE94F8410008285FD12168486920F04D
:1029C00040604861012284F84120606C0028204664
:1029D00044D1BDE8324000F065BE0B0713D51503A6
:1029E00011D50821C16020680268510206D502682D
:1029F00022F410220260012084F841002046BDE844
:102A00003240FEF77ABECB072CD5D5032AD501215B
:102A1000C1602068026822F470220260606C40F09D
:102A200002006064206801684A0713D5016821F03C
:102A3000040101600FF2E560E16B8863E06BFEF773
:102A400089FBD0B1606C40F004006064012184F81F
:102A5000411002E0012084F841002046BDE83240E8
:102A600000F021BEC90608D5D20206D51021C160EA
:102A70002046BDE8324000F017BE31BD016821F0AC
:102A800004010160E06B00680168490849000160C9
:102A900070472DE9F84304460E461546FFF73CFA09
:102AA00004F1400780463878012808BF022029D069
:102AB00001203870797801291FD100207860022127
:102AC000797000954346002200F0C4FA8146B0B9FF
:102AD00000F050F8706A68B900954346012202215F
:102AE00000F0B9FA814650B921680220C86001227D
:102AF0007A7004E00120787001E04FF002090020B4
:102B000038704846BDE8F283F8B504460E46FFF734
:102B100003FA04F1400503462878012801D1022078
:102B2000F2BD01202870697801291ED1002068605B
:102B30000221697000F08BFA070013D1706A10B996
:102B400020680321C16000F015F8706A38B90021CF
:102B500029702068026842F44032026008E00120D7
:102B6000687003E00020287002E00227002129702D
:102B70003846F2BD00223146204600F010BB2DE958
:102B8000FC4107460C46154607F14006FFF7C4F91D
:102B900039683278804601F12000012A08BF0220FE
:102BA00041D0012232707378012B39D1002272603A
:102BB00084B3122272700B695B1CFB620A69521C9F
:102BC000BA627C6204464A6922F040624A610FE0C0
:102BD00001220421384600F0BDFA010017D1786ABD
:102BE000017821707A6A501C7862F96A491EF9628C
:102BF0004346F86A00950028EAD1012202213846AE
:102C000000F0A8FA010002D13A680221D160012146
:102C1000717006E0706840F008007060012000E00C
:102C2000022000213170BDE8F6812DE9F843054608
:102C30000E469146FFF770F980462868816905F1D4
:102C4000400700F120043A78012A08BF022044D04E
:102C500001223A707B78012B3CD100227A609EB32E
:102C600022227A7003695B1CAB630269521C6A639F
:102C70002E630122436962F39B634361286881618B
:102C80000FE001220621284600F064FA010018D165
:102C90002078296B0870286B421C2A63A86B401EA1
:102CA000A8634346A86BCDF800900028E9D1012223
:102CB0000221284600F04EFA010002D12A680221C2
:102CC000D1600121797006E0786840F008007860F2
:102CD000012000E0022000213970BDE8F283F8B540
:102CE000044604F1400622681369307800255B1C15
:102CF000012801D10220F2BD012030707778012F28
:102D000066D10020002970605BD0E06B406900282C
:102D100033D1E362122070700323D360E06AA062B3
:102D200061622068426922F0406242610FF2A9307C
:102D3000E26BD062E26B0FF2BD301063E26B0FF218
:102D4000BD3050631020E26B9563E26B906000F041
:102D5000D6F8A36A2768E06B07F12002FEF782F934
:102D600030BB30702068016841F480310160206818
:102D7000026842F0040202602DE0B0F5807F09D1C4
:102D8000D80704D4277AF80758BF5B08C1D500F0EC
:102D900024F814E0B0F5007FBCD113F0030F02BF9C
:102DA000207A10F0030F9B08B3D000F016F806E06D
:102DB000706840F0040070600121012571700020EE
:102DC00004E0716841F0080171600125307002E093
:102DD0000021022531702846F2BD706840F00800DD
:102DE000706001257047F8B5044604F14007226879
:102DF00096691369387800255B1C012801D10220EF
:102E0000F2BD0120387097F801C0BCF1010F6BD101
:102E100000200029786060D0E06B4069002838D13C
:102E2000A363222078700323D360A06B0FF2A1224A
:102E300060632163E06BC262E06B0FF2B122026358
:102E4000E06B0FF2B9224263E06B8563E06B856053
:102E500000F055F80A46636B206800F12001E06B32
:102E6000FEF700F900282FD120684269012161F3A3
:102E70009B62426100212068866139702068026887
:102E800042F4803202602068016841F00401016070
:102E90002DE0B0F5807F09D1D80704D4207AC0078F
:102EA00058BF5B08BCD500F024F814E0B0F5007FF3
:102EB000B7D113F0030F02BF207A10F0030F9B0865
:102EC000AED000F016F806E0786840F004007860B4
:102ED000012101257970002004E0796841F00801A2
:102EE00079600125387002E00021022539702846FA
:102EF000F2BD786840F00800786001257047E06B0B
:102F000002681368806823F010030343136070475E
:102F10002DE9F8430446894615461F46FEF7FCFF97
:102F200004F1400680463078012808BF022039D0DD
:102F300000F088F833D10020706042217170009752
:102F40004346002200F086F8010029D12168286854
:102F500088622168686848622168A868C862216838
:102F60000A68286922F44002024342F480020A609F
:102F70004FF00062E968C9F828102046494600F081
:102F80000EF9009743460122082100F064F8010081
:102F900006D122680821D1600123737000E002206D
:102FA00000213170BDE8F2832DE9FC4105468846D9
:102FB0001746FEF7B1FF05F14006034630780128B9
:102FC00008BF02203CD000F03DF835D100207060F1
:102FD000422171700022B06800902021284600F044
:102FE000B9F8040025D129683868886229687868AA
:102FF00048622968B868C8622A68136839697869BC
:1030000023F440030B430343136009222968CA6079
:103010004FF00062F868C8F828004146284600F0E2
:10302000BEF8002030702868016841F4102101606A
:1030300005E00020307002E00021022431702046BB
:10304000BDE8F681012030707178012970470022B7
:10305000A8680090202120467CE038B5044604F1A1
:1030600040056878810731D50020287008226A70F1
:103070002068016821F4F811016020680268510796
:1030800011D5026822F004020260E16B0FF28D009C
:103090008863E06BFEF75EF8C0B1012068702046DF
:1030A00000F000FB12E0816888060DD5226802213D
:1030B000D1602068016841F4003101602068026835
:1030C00042F00202026001E001206870002032BD7F
:1030D000806A0021816303E0806A0021C16200BF31
:1030E0000068026842F4003202607047806A00F0B3
:1030F000DCBA0000806A00F0D9BA0000806A0021C2
:1031000081630022C262416C41F0040141640168A4
:103110000A6822F004020A609FE70000806A00212A
:1031200081630022C26290F8411008290DD1016824
:103130000222CA6001680A6842F400320A6000682C
:10314000016841F0020101607047012280F84120CE
:1031500000F0A9BA2DE9F041069C05460E469046BE
:103160001F462868816816EA010018BF0120404503
:1031700012D014F1010FF4D0FEF7CEFEC01B844232
:1031800001D3002CEDD1042085F841000120696CA9
:1031900041F00101696400E00020BDE8F081F0B574
:1031A0004B6A002B18BFB2F1406F03D08B6A0468E2
:1031B0005B1E23618B69002B39D00568086A08B350
:1031C0008868E861CC6A086B4B6B4E690F680443F2
:1031D000486A1C4304430B69086A44EA86441C435A
:1031E00004438E69C86948B1CB681C430443344327
:1031F0003C431443B2F1406F6C614FE034433C43B5
:10320000224312E0CE6A086B4C6B0F6800F05AF84C
:10321000C86946EA844628B1CC682643064333434E
:103220003B4337E033433B431A436A6148E00B6A50
:103230001BB304688868E061CD6A086B4B6B4E690C
:103240000543486A1D4305430B69086A45EA8645FC
:103250001D4305438E69C86950B1CB681D430543C2
:1032600035431543B2F1406F65612AD0486802E0EA
:1032700035432A436261A061F0BDCB698BB105681B
:10328000CE6A086B4C6B00F01DF8C86846EA8446AD
:10329000064333431343B2F1406F6B6111D048686A
:1032A0000EE04B6A6BB10568CE6A0C6B486B4969DE
:1032B00026430643334343EA81431A436A610020AD
:1032C000A861F0BD0643486A26434C69064370472F
:1032D00010B500F184010A78012A01D1022010BD45
:1032E00001220A7024234B60026813681468640882
:1032F000640014600022426623F0005300680360FB
:1033000020224A6000230B70002010BD70B500F031
:103310001FF801D1022070BD00F020F822F06042B9
:1033200009E070B500F014F801D1022070BD00F082
:1033300015F822F0606211438160204600F01CF80D
:10334000206806602021696000222A70002070BD7C
:10335000044604F18405287801287047012028706C
:1033600024226A60206806680268520852000260DF
:10337000206882687047000030B5416E11B90121A4
:10338000012214E0016800BF0BA48A68D1F808107C
:103390000BA3520E02F00702490F655CA45C595C56
:1033A0009A5CED00E40095FBF1F194FBF2F26830D9
:1033B0004180028030BD00000101010307010000CF
:1033C0000804020408010101002200F071B90000A4
:1033D00038B50446FEF7A0FD14F1010F054602D0F2
:1033E000044988680419FEF797FD401BA042FAD3F0
:1033F00031BD00BF6404002070B50E4E0446B068B5
:103400000025A0B14FF47A710B4AB1FBF0F11068BE
:10341000B0FBF1F0FFF7F1F848B9102C07D2002209
:1034200021464FF0FF30FFF7BFF8746000E0012540
:10343000284670BD6404002070040020704700001E
:1034400062F30F2262F31F42401810F0030308D00A
:10345000C91A1FD3DB0748BF00F8012D28BF20F889
:10346000022D130030B414461546103928BF20E948
:103470003C00FAD8490728BF20E90C0048BF40F8B3
:10348000042D890028BF20F8022D48BF00F8012D27
:1034900030BC7047C91818BF00F8012DCB0728BFF2
:1034A00000F8012D70470000F8B50C46002500B962
:1034B00014B96FF0010529E0704F387AC2076FF038
:1034C000040611D40121002000F05BF8E8B93A6944
:1034D00013696FF07F4107F114009847002814D456
:1034E000B86840F00100B8606068052805D37868C6
:1034F00040F00100786000F093F83A6913682146C3
:1035000007F114009847002800D535462846F2BD3B
:1035100038B5002418B9594B187AC50702D46FF092
:10352000010409E003F114001B695D69D2B2A847E8
:10353000002848BF6FF00404204632BDF8B50C46A1
:10354000002518B94D4E307AC10702D46FF001053D
:1035500015E032699369214606F114009847002866
:103560006FF004070AD431694B690CBF01220022B5
:10357000214606F114009847002800D53D4628460C
:10358000F2BD2DE9F0430024002887B00E466FF00D
:10359000010940D1022E3ED8384F386858BB38490F
:1035A000384A0FF2FC080191029200253649374A49
:1035B000059104923649069118F80500ADF80C0003
:1035C00001A907F1140000F02BFC78B9694607F156
:1035D000140000F0C8F848B900987B2818BF792873
:1035E00004D107F1140000F07DF860B16D1C012DCD
:1035F000E2D94FF0FF34386801280DD1012E05D1F2
:103600002448386108E001213960F7E7022E02D131
:103610002148F86000E04C46204607B0BDE8F08342
:1036200080B51E4886B0016841F0010101600023A9
:10363000026802F0010200920099426942F0010220
:1036400042610122406900F0010000904FF090407B
:103650000099019203934FF488120493029201A9F6
:10366000FEF708FE0F220E210620FEF79DFF062022
:10367000FEF7B8FF07B000BD00000000B80D002045
:1036800069450008AB4600080F470008EF460008F0
:1036900065470008D8030020040400204C100240B5
:1036A00084867047704770477047704770470000C6
:1036B00000B500BF130096469446103928BFA0E815
:1036C0000C50FAD85FEA417C28BF0CC048BF40F8D4
:1036D000042BC90728BF20F8022B48BF00F8012B94
:1036E00000BD000070B50446002594F8240090B990
:1036F000216888470221204600F08FF84FF0FF36FE
:1037000020B90121204600F09CF808B1354602E0BE
:10371000012084F82400284670BD10B5044694F8B2
:103720002400012804D160688047002184F8241017
:10373000002010BD1CB580218DF8001001236A46C1
:10374000402105E01CB540218DF8001001236A4698
:10375000183000F0F9FB002408B14FF0FF34204688
:1037600016BD002070477CB504460D462068804792
:1037700001236A46002100F099F90026002812BFB3
:103780004FF0FF369DF800002860304676BDF8B552
:1037900000F025F800F051F828B99DF80000054325
:1037A00000F014F800B13E463046F2BDF8B500F026
:1037B00016F800F042F830B99DF8000020EA05053F
:1037C00000F004F800B13E463046F2BD8DF80050DE
:1037D00001236A46422104F1180000F0B5BB0446FB
:1037E0000D4601236A46422104F1180000F0A6BBF1
:1037F0001CB50C4601236A46082100F0EDFA0028AA
:1038000012BF4FF0FF349DF800000440204616BD63
:1038100013B5012301AA44219AE7F8B500F02BF86B
:1038200000F00BF830B99DF8000000F0FD0000F04A
:1038300018F800B13E463046F2BD00264FF0FF3783
:103840007047F8B500F017F8FFF7F7FF30B99DF8AB
:10385000000000F0FE0000F004F800B13E463046E3
:10386000F2BD05438DF8005001236A46412104F161
:10387000180000F069BB04460D4601236A46412149
:1038800004F1180000F05ABBF8B505460F4600F0E9
:103890001FF800F053FB00244FF0FF36A8B99DF845
:1038A000000040F001008DF80000B7F5803F9DF862
:1038B00000002CBF40F0080000F0F7008DF8000079
:1038C00000F006F800F040FB00B134462046F2BD9F
:1038D00001236A46402105F11800704700000000EE
:1038E00070B50E4600247268042A054603D9521F9B
:1038F000032A04D906E0316800F0B4F801E000F0D2
:10390000A3F804467068042816BF03280122002289
:103910003168284600F05FF80419B06818B1022831
:1039200003D002D306E0002300E00123326800F058
:103930004FF804197068042804D13268002300F09D
:1039400047F804197068032804D13268012300F095
:103950003FF80419B06818B1022808D005D30CE06C
:103960007068022818BF012801D0012300E000235D
:103970003268682100F02DF804197068401F032890
:1039800021D8DFE800F002050F073168012203E0CB
:10399000012208E031680022284600F021F80419CD
:1039A000012206E000223168284600F019F80419C7
:1039B00000223168284600F018F8041931682846BA
:1039C00000F04CF804190CB14FF0FF34204670BDE4
:1039D0006421284641E2134610B50A46602145E0BD
:1039E000134610B50A464C2140E0134610B50A466E
:1039F00050213BE038B500244FF0FF351AB10A469C
:103A000001236C2102E00A460123702100F025FA0F
:103A100000B12C46204632BD38B504460D46012380
:103A20006A46102100F042F860B900F07EF81121DA
:103A300000F03CF830B901230DF10202122100F030
:103A400035F800B136E038E010B50121FFF79FFEF0
:103A50000EE010B50121FFF7A9FE09E010B50A46F6
:103A6000012302E010B50A460023482100F0F5F9D1
:103A7000002408B14FF0FF34204610BD38B504468D
:103A80000D4601236A460C2100F010F860B900F0E1
:103A90004CF80D2100F00AF830B901230DF10202B3
:103AA0000E2100F003F800B104E006E004F1180074
:103AB00000F044BA4FF0FF3032BD9DF800109DF881
:103AC00001209DF8020001EB022303EB004305EA0D
:103AD000030032BD1CB58DF8021004460A0A090C19
:103AE0009DF802008DF801208DF8001030B10123FF
:103AF0000DF10202542100F01CF888B99DF8010074
:103B000028B100F012F8552100F013F840B99DF8E3
:103B1000000040B101236A46562100F00AF810B1B6
:103B20004FF0FF3016BD002016BD01230DF101023C
:103B3000704704F1180000F007BA7CB50446002570
:103B40008DF8005000F011F94FF0FF3630B99DF8B4
:103B5000000040F0010000F0FFF800B135462846B3
:103B600076BD7CB5054600208DF801000E4600F0BC
:103B7000EBF804469DF80100410704D440F004002E
:103B800000F0D8F80419707E400000F00E008DF8A7
:103B900000000123B17E01F0400108438DF80000D0
:103BA0006A46F17E9DF8000001F0800108438DF81F
:103BB0000000802100F0BAF80419307F717F00F016
:103BC000A9F800F0AEF8812100F0B0F80419B0882F
:103BD00000F0A6F8822100F0A9F80419B08800F0DE
:103BE000A0F8832100F0A2F80419F08800F098F8FA
:103BF000842100F09BF80419F08800F092F88521E8
:103C000000F094F80419308900F08AF8862100F059
:103C10008DF80419308900F084F8872100F086F8C7
:103C20000419708900F07CF8882100F07FF80419ED
:103C3000708900F076F8892100F078F80419B089CD
:103C400000F06EF88A2100F071F80419B08900F0D4
:103C500068F88B2100F06AF80419F08900F061F827
:103C6000902100F063F80419308A00F05AF891218D
:103C700000F05CF80419708A00F053F8922100F00B
:103C800055F80419B08A00F04CF8932100F04EF872
:103C90000419F08A00F045F8942100F047F804195F
:103CA000308800F03DF88C2100F040F8041930888D
:103CB00000F037F88D2100F039F80419708800F011
:103CC0002FF88E2100F032F80419708800F029F8DE
:103CD0008F2100F02BF80419B07F00F022F8962114
:103CE00000F024F80419F07F96F8201000F012F884
:103CF00000F017F8972100F019F80419307E00F051
:103D000010F8982100F012F8041918BF4FF0FF3492
:103D1000204676BD00F0800001F07F010843704727
:103D2000000A8DF8000001236A46704705F118006B
:103D300000F00AB98DF8010001230DF101024021C4
:103D400005F1180000F000B901230DF10102402136
:103D500005F1180000F0F2B88DF8000001236A4662
:103D6000802104F1180000F0EFB801236A46802199
:103D700004F1180000F0E2B838B504460D46208979
:103D8000246903236A461421A0479DF801109DF879
:103D90000000090241EA00419DF802000143296048
:103DA000002032BD10B50221FFF7F1FC60E610B52E
:103DB0000221FFF72DFD5BE6022119E510B5022176
:103DC000FFF7F4FC54E680B501236A46032100F0B6
:103DD00003F800B10CE00EE0183000F0AFB880B589
:103DE00001236A460421FFF7F7FF00B100E002E07B
:103DF0004FF0FF3002BD9DF8000002BD10B5042158
:103E0000FFF7C5FC34E610B50421FFF701FD2FE6EE
:103E10000421FFF7EDBC10B50421FFF7C7FC27E62E
:103E200010B54FF0FF32B0B10B6803604C684460CE
:103E30000B890381CC68C4600B69036149690FF287
:103E4000E50341610062C3610FF2E5018161006831
:103E500008B180470246104610BD2DE9FC47804658
:103E6000144689461F460020160A150CE1B291B18E
:103E700000F052F800F062F8824638009DF8000029
:103E800014BF044320EA04048DF8004000F044F815
:103E900000F05AF85044F1B2A9B109F1010A044600
:103EA00000F034F800F04AF8041938009DF80000DA
:103EB00014BF064320EA06068DF8006000F026F8DD
:103EC00000F042F80019E9B2A9B109F1020604466E
:103ED00000F016F800F032F804199DF80000002FE9
:103EE00014BF054320EA05058DF8005000F008F8DE
:103EF00000F02AF8001908B14FF0FF30BDE8F6874E
:103F000001236A46314608F11800704701236A46CA
:103F1000514608F11800704701236A46494608F1E6
:103F20001800704710B5044620892469A04710BDC9
:103F300010B504462089E468A04710BD10B50446BA
:103F4000A0686468A04710BD10B50446A068246846
:103F5000A04710BD38B5040001D1012032BD04F1E5
:103F60004005687820B900212970204600F0FAFA4F
:103F700000F058F86068216820F0706008612068DF
:103F8000816821F400418160E0680128A0680CBFCD
:103F900040F4004040F4044021688860E068022852
:103FA000206841680CBF41F4006121F40061416068
:103FB0002068416841F0007141F40041416020688F
:103FC000C16821F40041C16060692169A2690143AF
:103FD000206841EA0221C160206AE1692268014348
:103FE00011602068016841F00101016000206860F3
:103FF0002021697020630021A97032BD38B504000A
:1040000001D1012032BD04F1400500F00BF820463B
:1040100000F0A9FA00206860002169702063A9708F
:10402000287032BD24206870206801684908490062
:104030000160704700904FF00073D2B2704700905B
:104040004FF08073FF2270472DE9F84F00F050F9D0
:1040500060D10A9D002D1CBF0B9F002F03D14FF490
:104060000071616054E02078012853D00121217053
:10407000FDF752FF00F080F8002849D1212000F020
:1040800040F94FF0807300F064F80C994A4600F054
:104090005DF858B9BBF1010F02D000F051F828B912
:1040A00000F008F9802100F05CF810B100202070C9
:1040B0002EE0708DFF25B0F5807F05D300F06EF8FF
:1040C00000F04BF80C9F02E000F060F8F8E74A4679
:1040D000394600F03BF800281AD100F022F878B1F8
:1040E00089B269B900F040F8002811D100F015F844
:1040F00002D300F053F801E000F048F800F02DF88A
:10410000708D0028E3D100F0DFF800F04EF802D007
:10411000012000E00220BDE8F28F708DB0F5807FB5
:104120007047706A326801789162706A411C7162EE
:10413000708D411E7185308D411E3185708D7047A7
:1041400031684FEA1A2088624A460C99304600F0DE
:1041500029B9574900915FFA8BF24146304600F089
:10416000EAB9304600F0EEB8CDF800903B460022A8
:104170008021304600F0E6B88146CDF80090192342
:1041800001224FF40041304600F0DCB8728D3285D8
:10419000002000904FF00073D2B2704735850020A8
:1041A00000904FF08073FF22704701000DD13268FC
:1041B0002020D0613268DFF860015368034053600B
:1041C000202262700020A0702070080070472DE946
:1041D000F84F00F08DF867D10A9D002D1CBF0B9F92
:1041E000002F03D14FF4007161605BE0207801285B
:1041F0005AD001212170FDF78FFEFFF7BDFF002887
:1042000050D1222000F07DF80023FFF7A2FF0C9987
:104210004A46FFF79BFF58B9BBF1010F02D0FFF7E9
:104220008FFF28B900F046F84021FFF79AFF10B140
:104230000020207036E0718DDFF8D800FF25B1F541
:10424000807F06D33585FFF7FAFEFFF786FF0C9FC8
:1042500004E0728D3285FFF7EDFEF6E7CDF80090B1
:104260003B4600220421FFF77CFF00281AD100F012
:1042700030F878B189B269B9FFF776FF002811D11B
:10428000FFF74BFF02D3FFF789FF01E0FFF77EFF47
:10429000FFF763FF708D0028E0D100F015F8FFF7FD
:1042A00084FF02D0012000E00220BDE8F28F000070
:1042B0000020008030685FFA8AFAC0F828A0CDF8A4
:1042C000009000220C9B70474A463946304600F069
:1042D0009AB83068416A706A0170716A308D4A1C00
:1042E000411E72623185708D421E7285708D7047DD
:1042F000064606F1400488466078202892469B4690
:10430000704760704021A170002060607562778501
:10431000706370470024008000E800FE90F84100C0
:104320007047406C70470000006881698A0744BF8D
:10433000002181628169CA0703D4816941F00101CA
:10434000816170472DE9F041069F05460E46904673
:104350001C46286881693140B1420CBF0120002011
:1043600040451DD13A4600F03FF888B914F1010FDD
:10437000EFD0FDF7D1FDC01B844201D3002CE8D162
:10438000286881693140B1420CBF0120002002E061
:104390000120BDE8F0814045DBD100F028F8F7E7C7
:1043A0000020F6E770B505460C4616462868816978
:1043B000880716D400F017F818B914F1010FF5D0DA
:1043C00001E0012070BDFDF7A7FD801B844201D3F1
:1043D000002CEBD1286881698807E7D400F007F842
:1043E000EFE7002070BD32462146284628E005F15F
:1043F00040002022416841F02001416042700021CC
:1044000081700170704770B505460C4616462868E5
:104410008169880612D4FFF7E6FF08B1012070BD5C
:10442000FDF77AFD801B844201D3002CEFD1286870
:1044300081698806EBD4FFF7DAFFEFE7002070BD53
:104440002DE9F8430446002520688369002690463C
:10445000DA0604F1400739D51023C36189462BE001
:1044600029002DD119F1010F26D0FDF755FDA0EB44
:104470000800814502D3B9F1000F1DD120684168C1
:10448000BA7883691B040AD5490408D4202A06D0C7
:10449000416841F480414160FDF73EFD804620685F
:1044A0008169880608D4FDF737FDA0EB08001A28BB
:1044B000F5D346F020060125206881698A06CFD50C
:1044C0000DB92021C16146F00406012520688169EB
:1044D000CA0505D54FF4807346F00106C361012576
:1044E000480506D520684FF4806246F00806C26190
:1044F0000125880507D520684FF4007146F00206B3
:10450000C161012501E028000CD02046FFF70CFF17
:1045100000F00BF8202079680E437E60787000214F
:10452000B97039702846BDE8F28321680B484A68A3
:1045300002404A60704770B50068049C4568084EA8
:10454000C1F3090141EA0241194346EA54562143A5
:10455000B54321F000412943416070BD00E800FEF1
:10456000FF63FF03704770472DE9F041DFF87C835C
:10457000DFF87C03C8F8000086B04046FFF7CEFEA7
:104580000025002840F08280DFF86843DFF8687378
:10459000606940F040006061122200F07BF86169C0
:1045A00041F040016161802100F074F800910192B6
:1045B000042102220491039200F072F81221019169
:1045C0004FF480700221009003910422049200F0C5
:1045D00067F8206A40F0804020622F46206A00F091
:1045E000804005900598216841F080412160226853
:1045F00022F080422260FDF7DBFB040039D0DFF8B7
:10460000FC12DFF8FC0200260B1D2C22724353F82B
:1046100002C0844505D801F1080E5EF802208242EE
:1046200003D2761C022EF0D923E03146204600F05A
:104630009BF83146204600F0E4F8642819D2142192
:104640004843DFF8C0120C1D0A18083127580858D3
:1046500013683F0507F47007000447EA037700F486
:1046600070200743D068000200F47F400743107CAD
:1046700007433946404600F04DF96FF0070420B972
:104680000021404600F062F900B12546284606B0F8
:10469000BDE8F081606900F0400005900598704722
:1046A000029569463846FDF7E5BD802138B5DFF84B
:1046B000485200F054F84FF4807100F050F8DFF8E1
:1046C0004802016821F0400101600024026822F0E4
:1046D00040020260C16821F08041C160DFF80C0235
:1046E000FFF78CFC08B16FF00304204632BD3EB5E5
:1046F00000F020F801232046FFF7A6FC30B100F0BF
:1047000022F8042800D112E06FF003003EBD3EB550
:1047100000F01CF801232046FFF759FD30B100F0EE
:1047200012F8042800D102E06FF003003EBD6FF0E4
:1047300065003EBD009201930A466C4C4FF48055D3
:10474000C1B2029570472046FFF7EBBD009201937E
:104750000A46664C4FF4805501460295704728463C
:10476000FDF766BEFDF7D8BB2DE9F047674B634CFC
:10477000024603EB5203B3FBF2F32C2251436218BF
:10478000556AD168146A4D19916A5269323DC91C43
:10479000102003FB115114190029D8BF00215C4DD2
:1047A0002F68002202F10109002609FB03F806F137
:1047B000010C0CFB08FEA6451AD34FF0000E0EFBB1
:1047C00008FA8A450FD382420DD04FF0140A4D48A3
:1047D0000AFB07FA50447F1C02604660C0F808E0FC
:1047E000642F10460AD20EF1010EBEF1100FE6D36F
:1047F0006646102EDBD34A46102AD3D32F60BDE87D
:10480000F0872DE9FF4F414B03EB5004B4FBF0F070
:104810002C223A4C5143214400914FF06408009CF3
:10482000A26A21684243039203EB5103009A039C5E
:10483000B3FBF1F953683549B1FBF3FB9368B1FB66
:10484000F3FC04EB4004CE460021029445E014241E
:104850002C4B4C431C4401940025019B1A68521CAC
:104860004243029C6B1C02FB0343009CA66932334B
:10487000B3422DD3039CA3F13206341BB0EB940F4B
:1048800026D20024029E671C02FB0766009FD7F811
:1048900020A07F6A9A443236BA44B244E24521BF2E
:1048A000D345009FFF69BE420ED3B0420CD2BAEB93
:1048B00009073E4648BF7642764505D2B646019E78
:1048C00035618846019EF460641CB4F5807FD9D3BD
:1048D0006D1CB5F5807FC4D3491C0D4A13689942FD
:1048E000B5D3404604B0BDE8F08F0000640D002051
:1048F000007800403810024000180048CC490008F9
:10490000A0860100740400204C10024000CA9A3BAB
:10491000F80D002038B5044600256160A56001212E
:10492000E16025616561E5612562FFF713FB50B920
:104930004FF48051204600F009F820B902212046AA
:1049400000F019F800B10125284632BD30B500F15C
:1049500040025378202B0CD11478012C09D000F0A0
:104960001DF824F480541C6003681D6829431960F5
:1049700020E0022030BD30B500F140025378202BFA
:104980000AD11478012C07D000F008F824F47064E0
:1049900044EA01241C600DE0022030BD01231370A5
:1049A0002424547003681D686D086D001D60036841
:1049B0001C6870470068016841F001010160202017
:1049C000507000211170002030BD0000A086010051
:1049D000A0860100C0D40100000000007A0D000094
:1049E000FA0000005C120000A00F0000900100001F
:1049F0006400000002000000801A060000E20400CB
:104A0000801A06000000000084030000640000001B
:104A10001405000058020000FA00000064000000C5
:104A20000200000040420F0000350C0040420F0021
:104A300000000000C201000032000000F40100008C
:104A4000040100003C0000006400000002000000BF
:104A5000F0B40246106895681318506803EB5004D0
:104A6000C0071CD54D441AE013F8017B05F8017B03
:104A7000491EF9D198B113F8011BC6F38106032E24
:104A800008BF13F8016B01EB06214942801C294441
:104A900005D011F8016B05F8016B401EF9D1A34256
:104AA0000ED013F8016B16F0030104BF13F8011BBD
:104AB000C91C30090F28DBD113F8010B0F30D7E7E1
:104AC000F0BC02F10C0070477047FEE7FEE7FEE71E
:104AD000FEE770477047704700F01AB80748FCF7C8
:104AE00077BB0748FCF774BB0648FCF771BB064868
:104AF000FBF7EEBB0548FDF7CBBE0000440C0020E1
:104B0000A40C0020040D0020F80200208C030020DB
:104B100002490A68886882180A60704764040020A5
:104B200030B4002512E050F8042BD30744BF4A44A8
:104B3000521E091F042942F8045BFAD213468C075F
:104B400044BF15809B1CC90748BF1D7050F8041B4B
:104B50000029E8D130BC70470448054A016841F497
:104B6000700101604FF000601060704788ED00E058
:104B700008ED00E000000000000000000102030456
:104B80000607080910B5074979441831064C7C44DA
:104B9000163404E00A68081D114488470146A14202
:104BA000F8D110BD2C000000480000004EF68851DE
:104BB000CEF20001086840F470000860BFF34F8F28
:104BC000BFF36F8F4FF00170E1EE100A70470000E5
:104BD00051FFFFFF8809000074040020000000005E
:104BE00071FEFFFF080200005201000000000020DB
:104BF00000F00DF8002801D0FFF7C4FFAFF30080EC
:104C00000020AFF30080FCF79DFB00F002F80120CC
:104C1000704700F001B800000746384600F002F87F
:104C2000FBE7000080B5AFF30080024A11001820B6
:104C3000ABBEFBE7260002000548014603B4684608
:104C400080F30988AFF30080FFF7B0FFFFF7D0FFD4
:104C5000A5EDF5FE0148804701480047594B000883
:104C6000394C00080000000001020304FFF7FEBFFA
:104C7000FFF7FEBFFFF7FEBFFFF7FEBFFFF7FEBF68
:104C8000FFF7FEBFFFF7FEBFFFF7FEBFFFF7FEBF58
:104C9000FFF7FEBFFFF7FEBFFFF7FEBFFFF7FEBF48
:104CA000FFF7FEBFFFF7FEBFFFF7FEBFFFF7FEBF38
:104CB000FFF7FEBFFFF7FEBFFFF7FEBFFFF7FEBF28
:104CC000FFF7FEBFFFF7FEBFFFF7FEBFFFF7FEBF18
:104CD000FFF7FEBFFFF7FEBFFFF7FEBFFFF7FEBF08
:104CE000FFF7FEBFFFF7FEBFFFF7FEBFFFF7FEBFF8
:104CF000FFF7FEBFFFF7FEBFFFF7FEBFFFF7FEBFE8
:104D0000FFF7FEBFFFF7FEBFFFF7FEBFFFF7FEBFD7
:104D1000FFF7FEBFFFF7FEBFFFF7FEBFFFF7FEBFC7
:104D2000FFF7FEBFFFF7FEBFFFF7FEBFFFF7FEBFB7
:104D3000FFF7FEBFFFF7FEBFFFF7FEBFFFF7FEBFA7
:104D4000FFF7FEBFFFF7FEBFFFF7FEBFFFF7FEBF97
:104D5000FFF7FEBFFFF7FEBFFFF7FEBFFFF7FEBF87
:104D6000FFF7FEBFFFF7FEBFFFF7FEBFFFF7FEBF77
:104D7000FFF7FEBFFFF7FEBFFFF7FEBFFFF7FEBF67
:104D8000FFF7FEBFFFF7FEBFFFF7FEBFFFF7FEBF57
:104D9000FFF7FEBFFFF7FEBFFFF7FEBFFFF7FEBF47
:104DA000FFF7FEBFFFF7FEBFFFF7FEBFFFF7FEBF37
:104DB000FFF7FEBFFFF7FEBFFFF7FEBFFFF7FEBF27
:104DC000FFF7FEBFFFF7FEBFFFF7FEBFFFF7FEBF17
:104DD000FFF7FEBFFFF7FEBFFFF7FEBFFFF7FEBF07
:104DE000FFF7FEBFFFF7FEBFFFF7FEBF13202A014C
:104DF00010175153504920636F6D6D756E69636173
:104E000074696F6E20626173656420092001444DEE
:104E10004123F2BC2029F2FF0001F1FF01F1B001B2
:104E20001007E13800081B37000867041235041228
:104E300089101007F5390008193A0008490412537F
:104E400004127D0412D504C3E5362C124504126306
:104E500004133B3B0811041003793D0008A504121C
:104E6000BD0412B90412AF0412FD041003073E0082
:104E700008110412170412C71012DF043C020018B4
:104E800000485E0352140842080812100522010966
:054E9000000124F40004
:0400000508004C396A
:00000001FF
